:020000040000FA
:0400000007EF00F016
:100008007382CCED02F076EF03F0070E926E9368E0
:10001800C00E946E000E956E969096929694929C51
:10002800950ED56E090EC26E0C0EC16E1D0EC06EF9
:1000380020EEB3F010EE10F0100EDBCFE3FFE80671
:10004800FCE220EEA2F010EE21F0100EDBCFE3FF71
:10005800E806FCE220EE91F010EE32F0100EDBCF55
:10006800E3FFE806FCE220EE80F010EE43F0100E0D
:10007800DBCFE3FFE806FCE2F288F28EF088F28C30
:100088000EEC03F047EC04F0800E0AEC04F0100EBE
:100098000C6E000E0D6ED6EC03F0C00E0AEC04F0E8
:1000A800210E0C6E000E0D6ED6EC03F0A0EC03F0E2
:1000B800D9EC01F0010E0AEC04F0800E0AEC04F011
:1000C800320E0C6E000E0D6ED6EC03F0C00E0AEC6C
:1000D80004F0430E0C6E000E0D6ED6EC03F0F28A9F
:1000E8000B0ED76EDC0ED66E81A202D0010E01D0A7
:1000F800000E5B18D8B418D081A202D0828201D039
:10010800829281A202D0010E01D0000EFF0A0E6E6B
:1001180082500E18FE0B0E18826E350E52EC04F04B
:10012800000E81B2010E5B6E81A802D0010E01D0D3
:10013800000E5D18D8B41AD081A802D0808801D0EA
:10014800809881A802D0010E01D0000EFF0A0E6E21
:100158000E3A0E4680500E18DF0B0E18806E550EA4
:1001680052EC04F0000E81B8010E5D6E81AA02D037
:10017800010E01D0000E5C18D8B41AD081AA02D0A2
:10018800808601D0809681AA02D0010E01D0000E8F
:10019800FF0A0E6E0E460E4682500E18FB0B0E1806
:1001A800826E340E52EC04F0000E81BA010E5C6EC1
:1001B80081AC02D0010E01D0000E5A18D8A408D084
:1001C80081AE02D0010E01D0000E5918D8B437D034
:1001D80081BC81AE0DD0848084928494470E52EC09
:1001E80004F0700E52EC04F06E0E52EC04F01FD0C6
:1001F80081AC81AE0DD0848284908494670E52ECD9
:1002080004F0500E52EC04F06E0E52EC04F00FD0D5
:1002180081BC81BE14D0848484928490670E52EC91
:1002280004F0700E52EC04F04E0E52EC04F0000E86
:1002380081BC010E5A6E000E81BE010E596E81A658
:1002480002D0010E01D0000E5818D8B407D0450EC0
:1002580052EC04F0000E81B6010E586E030EC26E09
:10026800150E0E6EC60EE82EFED70E2EFCD700D049
:10027800C4CF72F0575072C00EF00F6A0E5E000EB7
:100288000F5A0FBE06D00F5013E1020E0E5CD8B005
:100298000FD0725057C00EF00F6A0E5E000E0F5A44
:1002A8000FBE16D00F5004E1020E0E5CD8A010D07D
:1002B800300E52EC04F00B0E0E6E620EE82EFED7D6
:1002C8000E2EFCD700D0725052EC04F072C057F0DA
:1002D800070EC26E150E0E6EC60EE82EFED70E2E37
:1002E800FCD700D0C4CF70F0545070C00EF00F6A25
:1002F8000E5E000E0F5A0FBE06D00F5013E1020E0D
:100308000E5CD8B00FD0705054C00EF00F6A0E5E5D
:10031800000E0F5A0FBE16D00F5004E1020E0E5CED
:10032800D8A010D00B0E0E6E620EE82EFED70E2E41
:10033800FCD700D0590E52EC04F0705052EC04F087
:1003480070C054F00B0EC26E150E0E6EC60EE82E5F
:10035800FED70E2EFCD700D0C4CF71F0555071C017
:100368000EF00F6A0E5E000E0F5A0FBE06D00F5029
:1003780013E1020E0E5CD8B00FD0715055C00EF0CC
:100388000F6A0E5E000E0F5A0FBEAED60F5004E174
:10039800020E0E5CD8A0A8D6580E52EC04F071508C
:1003A80052EC04F071C055F09FD681A202D0010E24
:1003B80001D0000E5B18D8B415D081A202D0828279
:1003C80001D0829281A202D0010E01D0000EFF0A54
:1003D8000A6E82500A18FE0B0A18826E000E81B24D
:1003E800010E5B6E81A802D0010E01D0000E5D18CF
:1003F800D8B417D081A802D0808801D0809881A86D
:1004080002D0010E01D0000EFF0A0A6E0A3A0A460F
:1004180080500A18DF0B0A18806E000E81B8010E92
:100428005D6E81AA02D0010E01D0000E5C18D8B40E
:1004380017D081AA02D0808601D0809681AA02D0E6
:10044800010E01D0000EFF0A0A6E0A460A468250C3
:100458000A18FB0B0A18826E000E81BA010E5C6E38
:1004680081AC02D0010E01D0000E5A18D8A408D0D1
:1004780081AE02D0010E01D0000E5918D8B41BD09D
:1004880081BC81AE03D08480849205D081AC81AEDA
:1004980004D084828490849406D081BC81BE0BD021
:1004A800848484928490000E81BC010E5A6E000EE2
:1004B80081BE010E596E81A602D0010E01D0000E38
:1004C8005818D8B404D0000E81B6010E586E070E25
:1004D800C26E150E0A6EC60EE82EFED70A2EFCD77F
:1004E80000D0C4CF70F0545070C00AF00B6A0A5E96
:1004F800000E0B5A0BBE06D00B5013E1020E0A5C1D
:10050800D8B00FD0705054C00AF00B6A0A5E000EC3
:100518000B5A0BBE10D00B5004E1020E0A5CD8A097
:100528000AD00B0E0A6E620EE82EFED70A2EFCD7F2
:1005380000D070C054F00B0EC26E150E0A6EC60EB7
:10054800E82EFED70A2EFCD700D0C4CF71F0555044
:1005580071C00AF00B6A0A5E000E0B5A0BBE06D079
:100568000B5013E1020E0A5CD8B00FD0715055C081
:100578000AF00B6A0A5E000E0B5A0BBE12000B50F3
:1005880004E1020E0A5CD8A0120071C055F01200F6
:100598000600D9CF08F0DACF09F0F0A218D081A46C
:1005A80002D0010E01D0000E5618D8B407D0330E71
:1005B80058EC04F0000E81B4010E566E680E076EFA
:1005C800E40EE82EFED7072EFCD700D0F092F2A456
:1005D8001BD00B0ED76EDC0ED66E390E58EC04F01D
:1005E800F2945E0E016E000E026E000E046E100E86
:1005F800036EBFEC03F0C00E2AEC04F05E0E036E2F
:10060800000E046EE8EC03F009C0DAFF08C0D9FF59
:1006180073921100000E956E94969498949A380EE1
:100628000AEC04F09C0E0C6ED70EE82EFED70C2EAA
:10063800FCD700F00E0E0AEC04F0680E0C6EE40E07
:10064800E82EFED70C2EFCD700D00C0E0AEC04F0D6
:10065800680E0C6EE40EE82EFED70C2EFCD700D0E8
:10066800010E0AEC04F0680E0C6EE40EE82EFED7BC
:100678000C2EFCD700D0800E0AEC04F0680E0C6E2D
:10068800E40EE82EFED70C2EFCD700D01200202056
:10069800303030302C3030300000000000000020B6
:1006A8002020416C7469747564653A20000000006C
:1006B80054657374616E646F204C6564732E2E2EBE
:1006C800002053656A612062656D2076696E646FEB
:1006D8002120202020454D455247454E4349412180
:0306E800200000EF
:1006EC00960EF66E060EF76E000EF86E00EE80F0AB
:1006FC0010EE55F00900F5CFEEFFE550E150FAE1B0
:10070C00740EF66E080EF76E000EF86E00EE54F0D6
:10071C0010EE1AF00900F5CFEEFFE550E150FAE1CA
:10072C00726A716A706A6F6A6E6A73907392000172
:10073C0009EF00F0808682848088808A82808282A1
:10074C00848084828484110E0B6E3C0E0A6ECB0E58
:10075C00E82EFED70A2EFCD70B2EFAD700F0809687
:10076C0082948098809A82908292849084928494CD
:10077C001200000E066E000E056E0BD00550012403
:10078C00D96E06500220DA6E5EEC04F0DF6E054A7C
:10079C00062A0350055C04500658D8B01200EED758
:1007AC0009D00CC0D9FF0DC0DAFFDF50FAEC03F012
:1007BC000C4A0D2A0CC0D9FF0DC0DAFFDF50D8B49B
:1007CC001200EFD709D003C0D9FF04C0DAFFDF5005
:1007DC001AEC04F0034A042A03C0D9FF04C0DAFF60
:1007EC00DF50D8B41200EFD70B6E0BC083FF82869C
:1007FC008298828A0B0E0A6E620EE82EFED70A2EA3
:10080C00FCD700D0829A12000B6E0BC083FF82962D
:10081C008298828A0B0E0A6E620EE82EFED70A2E82
:10082C00FCD700D0829A1200026E02C083FF82862F
:10083C008298828A0B0E016E620EE82EFED7012E74
:10084C00FCD700D0829A1200026E02C083FF8296FF
:10085C008298828A0B0E016E620EE82EFED7012E54
:10086C00FCD700D0829A120030303030303030302B
:10087C00303054657374616E646F204C6564732EF4
:10088C002E2E190EAF6EAC94B896AC98AB8E948E8F
:10089C00948CAB88AC8A12000A6EACA2FED70AC04C
:1008AC00ADFF1200016EACA2FED701C0ADFF12006D
:0808BC009EAAFED7AE50120007
:020000040020DA
:08000000FFFFFFFFFFFFFFFF00
:020000040030CA
:0E000000FF071F1FFF8385FF0FC00FE00F409B
:00000001FF
